:020000040800F2
:108000000000022021A30208959902089D99020808
:10801000D9990208DF990208E599020800000000DA
:10802000000000000000000000000000EB990208C2
:10803000F999020800000000079A0208159A020840
:1080400071A3020871A3020871A3020871A30208B8
:1080500071A3020871A30208219A02082F9A02084C
:108060003D9A020871A302084B9A020871A3020804
:1080700071A3020871A3020871A3020871A3020888
:1080800071A3020871A3020871A3020871A3020878
:1080900071A3020871A3020871A3020871A3020868
:1080A000599A0208759A020871A3020871A302087E
:1080B00071A3020871A3020800000000919A02084F
:1080C000A59A0208B99A0208CD9A020871A302087B
:1080D00071A3020871A3020871A3020871A3020828
:1080E000E19A020871A302080000000000000000ED
:1080F0000000000000000000000000000000000080
:108100000000000071A302080000000071A3020833
:1081100071A302080000000071A302080000000023
:1081200071A3020871A3020871A3020871A30208D7
:1081300071A3020871A3020871A3020800000000E5
:1081400071A3020871A3020871A3020800000000D5
:1081500071A3020871A3020871A3020871A30208A7
:10816000019B0208159B020871A302080000000091
:108170000000000071A302080000000000000000E1
:1081800071A3020871A3020871A3020871A3020877
:0481900071A30208CD
:1081A00010B5054C237833B9044B13B10448AFF331
:1081B00000800123237010BD080C00200000000087
:1081C000E43E030808B5034B1BB103490348AFF372
:1081D000008008BD000000000C0C0020E43E0308F5
:1081E00001F0FF01102A2BDB10F0070F08D010F868
:1081F000013B013A8B422DD010F0070F42B3F6D16C
:10820000F0B441EA012141EA014122F007047FF084
:1082100000070023F0E80256083C85EA010586EADB
:10822000010685FA47F5A3FA87F586FA47F6A5FA17
:1082300087F68EB9EED1F0BC01F0FF0102F0070223
:1082400032B110F8013B013A83EA010313B1F8D1CE
:108250000020704701387047002D06BF35460338AF
:10826000073815F0010F07D1013015F4807F02BFE8
:10827000013015F4C03F0130F0BC0138704700BF39
:10828000034613F8012B002AFBD1181A0138704756
:1082900081F0004102E000BF83F0004330B54FEAB7
:1082A00041044FEA430594EA050F08BF90EA020F24
:1082B0001FBF54EA000C55EA020C7FEA645C7FEAB7
:1082C000655C00F0E2804FEA5454D4EB5555B8BFDA
:1082D0006D420CDD2C4480EA020281EA030382EA4B
:1082E000000083EA010180EA020281EA0303362DDD
:1082F00088BF30BD11F0004F4FEA01314FF4801CB0
:108300004CEA113102D0404261EB410113F0004FC1
:108310004FEA03334CEA133302D0524263EB430378
:1083200094EA050F00F0A780A4F10104D5F1200E16
:108330000DDB02FA0EFC22FA05F2801841F1000171
:1083400003FA0EF2801843FA05F359410EE0A5F145
:1083500020050EF1200E012A03FA0EFC28BF4CF076
:10836000020C43FA05F3C01851EBE37101F000452C
:1083700007D54FF0000EDCF1000C7EEB00006EEB39
:108380000101B1F5801F1BD3B1F5001F0CD34908C3
:108390005FEA30004FEA3C0C04F101044FEA44521A
:1083A00012F5800F80F09A80BCF1004F08BF5FEAA1
:1083B000500C50F1000041EB045141EA050130BD81
:1083C0005FEA4C0C404141EB0101013C28BFB1F593
:1083D000801FE9D291F0000F04BF01460020B1FADE
:1083E00081F308BF2033A3F10B03B3F120020CDAB1
:1083F0000C3208DD02F1140CC2F10C0201FA0CF08F
:1084000021FA02F10CE002F11402D8BFC2F1200CF3
:1084100001FA02F120FA0CFCDCBF41EA0C019040A9
:10842000E41AA2BF01EB0451294330BD6FEA0404F2
:108430001F3C1CDA0C340EDC04F11404C4F12002DD
:1084400020FA04F001FA02F340EA030021FA04F3EF
:1084500045EA030130BDC4F10C04C4F1200220FA46
:1084600002F001FA04F340EA0300294630BD21FA84
:1084700004F0294630BD94F0000F83F4801306BF4A
:1084800081F480110134013D4EE77FEA645C18BF3E
:108490007FEA655C29D094EA050F08BF90EA020FD5
:1084A00005D054EA000C04BF1946104630BD91EACD
:1084B000030F1EBF0021002030BD5FEA545C05D1D0
:1084C0004000494128BF41F0004130BD14F580040F
:1084D0003CBF01F5801130BD01F0004545F0FE4183
:1084E00041F470014FF0000030BD7FEA645C1ABFB8
:1084F000194610467FEA655C1CBF0B46024650EAEF
:10850000013406BF52EA033591EA030F41F400211A
:1085100030BD00BF90F0000F04BF0021704730B5A0
:108520004FF4806404F132044FF000054FF0000175
:1085300050E700BF90F0000F04BF0021704730B536
:108540004FF4806404F1320410F0004548BF40420B
:108550004FF000013EE700BF42004FEAE2014FEA60
:1085600031014FEA02701FBF12F07F4393F07F4F3B
:1085700081F06051704732F07F4208BF704793F03E
:108580007F4F04BF41F40021704730B54FF4607451
:1085900001F0004521F000411CE700BF50EA010254
:1085A00008BF704730B54FF000050AE050EA0102FD
:1085B00008BF704730B511F0004502D5404261EB6D
:1085C00041014FF4806404F132045FEA915C3FF4AE
:1085D000D8AE4FF003025FEADC0C18BF03325FEA4B
:1085E000DC0C18BF033202EBDC02C2F1200300FAFC
:1085F00003FC20FA02F001FA03FE40EA0E0021FA21
:1086000002F11444BDE600BF70B54FF0FF0C4CF40E
:10861000E06C1CEA11541DBF1CEA135594EA0C0FC0
:1086200095EA0C0F00F0DEF82C4481EA030621EAFB
:108630004C5123EA4C5350EA013518BF52EA033536
:1086400041F4801143F4801338D0A0FB02CE4FF0E8
:108650000005E1FB02E506F00042E0FB03E54FF018
:108660000006E1FB03569CF0000F18BF4EF0010E10
:10867000A4F1FF04B6F5007F64F5407404D25FEA0C
:108680004E0E6D4146EB060642EAC62141EA5551BF
:108690004FEAC52040EA5E504FEACE2EB4F1FD0C01
:1086A00088BFBCF5E06F1ED8BEF1004F08BF5FEA7F
:1086B000500E50F1000041EB045170BD06F0004631
:1086C00046EA010140EA020081EA0301B4EB5C04DE
:1086D000C2BFD4EB0C0541EA045170BD41F48011D6
:1086E0004FF0000E013C00F3AB8014F1360FDEBFFB
:1086F000002001F0004170BDC4F10004203C35DAD7
:108700000C341BDC04F11404C4F1200500FA05F359
:1087100020FA04F001FA05F240EA020001F00042FA
:1087200021F0004110EBD37021FA04F642EB060170
:108730005EEA430E08BF20EAD37070BDC4F10C049A
:10874000C4F1200500FA04F320FA05F001FA04F25E
:1087500040EA020001F0004110EBD37041F100014A
:108760005EEA430E08BF20EAD37070BDC4F1200555
:1087700000FA05F24EEA020E20FA04F301FA05F2BD
:1087800043EA020321FA04F001F0004121FA04F265
:1087900020EA020000EBD3705EEA430E08BF20EA35
:1087A000D37070BD94F0000F0FD101F0004640006F
:1087B00041EB010111F4801F08BF013CF7D041EAF1
:1087C000060195F0000F18BF704703F000465200F5
:1087D00043EB030313F4801F08BF013DF7D043EAC6
:1087E0000603704794EA0C0F0CEA135518BF95EA7C
:1087F0000C0F0CD050EA410618BF52EA4306D1D103
:1088000081EA030101F000414FF0000070BD50EA21
:10881000410606BF1046194652EA430619D094EAAB
:108820000C0F02D150EA013613D195EA0C0F05D195
:1088300052EA03361CBF104619460AD181EA0301E9
:1088400001F0004141F0FE4141F470014FF00000A1
:1088500070BD41F0FE4141F4780170BD70B54FF03C
:10886000FF0C4CF4E06C1CEA11541DBF1CEA1355BC
:1088700094EA0C0F95EA0C0F00F0A7F8A4EB05049E
:1088800081EA030E52EA03354FEA013100F0888095
:108890004FEA03334FF0805545EA131343EA12635E
:1088A0004FEA022245EA111545EA10654FEA002613
:1088B0000EF000419D4208BF964244F1FD0404F5CC
:1088C000407402D25B084FEA3202B61A65EB030528
:1088D0005B084FEA32024FF480104FF4002CB6EBE5
:1088E000020E75EB030E22BFB61A754640EA0C0065
:1088F0005B084FEA3202B6EB020E75EB030E22BFA5
:10890000B61A754640EA5C005B084FEA3202B6EBE5
:10891000020E75EB030E22BFB61A754640EA9C00A4
:108920005B084FEA3202B6EB020E75EB030E22BF74
:10893000B61A754640EADC0055EA060E18D04FEA32
:10894000051545EA16754FEA06164FEAC30343EAD2
:1089500052734FEAC2025FEA1C1CC0D111F4801F9F
:108960000BD141EA00014FF000004FF0004CB6E798
:1089700011F4801F04BF01430020B4F1FD0C88BF37
:10898000BCF5E06F3FF6AFAEB5EB030C04BFB6EB42
:10899000020C5FEA500C50F1000041EB045170BD35
:1089A0000EF0004E4EEA113114EB5C04C2BFD4EB62
:1089B0000C0541EA045170BD41F480114FF0000EE6
:1089C000013C90E645EA060E8DE60CEA135594EA62
:1089D0000C0F08BF95EA0C0F3FF43BAF94EA0C0F65
:1089E0000AD150EA01347FF434AF95EA0C0F7FF4DA
:1089F00025AF104619462CE795EA0C0F06D152EA2E
:108A000003353FF4FDAE1046194622E750EA410611
:108A100018BF52EA43067FF4C5AE50EA41047FF422
:108A20000DAF52EA43057FF4EBAE12E74FF0FF3C87
:108A300006E000BF4FF0010C02E000BF4FF0010C58
:108A40004DF804CD4FEA410C7FEA6C5C4FEA430CD1
:108A500018BF7FEA6C5C1BD001B050EA410C0CBF20
:108A600052EA430C91EA030F02BF90EA020F002082
:108A7000704710F1000F91EA030F58BF994208BFE9
:108A800090422CBFD8176FEAE37040F001007047A6
:108A90004FEA410C7FEA6C5C02D150EA013C07D1FD
:108AA0004FEA430C7FEA6C5CD6D152EA033CD3D048
:108AB0005DF8040B704700BF8446104662468C4642
:108AC0001946634600E000BF01B5FFF7B7FF002875
:108AD00048BF10F1000F01BD4DF808EDFFF7F4FF9E
:108AE0000CBF012000205DF808FB00BF4DF808ED29
:108AF000FFF7EAFF34BF012000205DF808FB00BF4C
:108B00004DF808EDFFF7E0FF94BF012000205DF86D
:108B100008FB00BF4DF808EDFFF7CEFF94BF012022
:108B200000205DF808FB00BF4DF808EDFFF7C4FF1B
:108B300034BF012000205DF808FB00BF4FEA410C64
:108B40007FEA6C5C02D150EA013C0AD14FEA430C47
:108B50007FEA6C5C02D152EA033C02D14FF0000084
:108B600070474FF0010070474A0011D212F5001211
:108B700011D20DD56FF47873B3EB62520ED44FEA75
:108B8000C12343F0004343EA505323FA02F07047F5
:108B90004FF00000704750EA013002D14FF0FF3033
:108BA00070474FF0000070474FEA4102B2F1E043D6
:108BB00024BFB3F5001CDCF1FE5C0DD901F0004CC4
:108BC0004FEAC0024CEA5070B2F1004F40EB830014
:108BD00008BF20F00100704711F0804F21D113F140
:108BE0003872BCBF01F00040704741F480114FEA79
:108BF0005252C2F11802C2F1200C10FA0CF320FA02
:108C000002F018BF40F001004FEAC1234FEAD3231E
:108C100003FA0CFC40EA0C0023FA02F34FEA430388
:108C2000CCE77FEA625307D150EA01331EBF4FF011
:108C3000FE4040F44000704701F0004040F0FE402C
:108C400040F40000704700BF53B94AB9002908BF7B
:108C500000281CBF4FF0FF314FF0FF3000F06EB91D
:108C6000ADF1080C6DE904CE00F006F8DDF804E083
:108C7000DDE9022304B070472DE9F047089D044662
:108C80008C46002B40F083808A42174647D9B2FABF
:108C900082F242B1C2F1200024FA00F091409740E4
:108CA00040EA010C94404FEA1748230CBCFBF8F64D
:108CB0001FFA87FE08FB16C143EA014306FB0EF1CB
:108CC000994209D9FB1806F1FF3080F019819942C9
:108CD00040F21681023E3B445B1AA4B2B3FBF8F0AB
:108CE00008FB103344EA034400FB0EFEA64509D9F5
:108CF0003C1900F1FF3380F00581A64540F2028166
:108D000002383C4440EA0640A4EB0E0400261DB1A4
:108D1000D4400023C5E900433146BDE8F08702B9DD
:108D2000FFDEB2FA82F2002A50D1CB1B4FEA174E77
:108D30001FFA87F80126B3FBFEFC210C0EFB1C3347
:108D400041EA034108FB0CF38B4207D979180CF177
:108D5000FF3002D28B4200F2E9808446C91AA3B2E6
:108D6000B1FBFEF00EFB101143EA014408FB00F8D2
:108D7000A04507D93C1900F1FF3302D2A04500F20B
:108D8000D9801846A4EB080440EA0C40BFE78B42A8
:108D900009D9002D00F0B1800026C5E90001304658
:108DA0003146BDE8F087B3FA83F6002E4AD18B42F4
:108DB00002D3824200F2B880841A61EB03010120E1
:108DC0008C46002DA8D0C5E9004CA5E7C2F12003D0
:108DD00020FA03F6974001FA02F04FEA174ED94005
:108DE0003043030CB1FBFEF61FFA87F80EFB161199
:108DF00043EA014306FB08F1994204FA02F409D957
:108E0000FB1806F1FF3C80F08D80994240F28A8089
:108E1000023E3B445B1A81B2B3FBFEF00EFB103303
:108E200041EA034100FB08F38B4207D9791800F1AE
:108E3000FF3C73D28B4271D902383944CB1A40EAD5
:108E4000064678E7C6F1200C03FA06F422FA0CF382
:108E50001C4320FA0CF701FA06F34FEA144E21FAEC
:108E60000CF11F433B0CB1FBFEF91FFA84F80EFB1B
:108E7000191143EA014109FB08FA8A4502FA06F290
:108E800000FA06F308D9611809F1FF3048D28A4583
:108E900046D9A9F102092144A1EB0A01BFB2B1FBF5
:108EA000FEF00EFB101147EA014700FB08F8B84539
:108EB00007D9E71900F1FF312ED2B8452CD9023875
:108EC000274440EA0940A7EB0807A0FB02894F4569
:108ED000C64649461AD317D05DB1B3EB0E0267EB15
:108EE000010707FA0CFCF2404CEA0202F740C5E920
:108EF000002700263146BDE8F0872E4628460BE7BE
:108F00000646E9E61846FDE64345E5D2B8EB020E13
:108F100069EB04010138DFE70846D2E760468DE7D8
:108F20008146B9E7664675E730464AE7ACF1020C80
:108F3000394413E702383C4424E700BF704700BFC0
:108F400080B58AB000AFF860B9607A60002387F816
:108F50002730BB681B0C87F82630BB689BB23B628E
:108F60003B6A5BBAFB61FB699BB27B8200233B825D
:108F700097F82630082B01D1002300E0042387F85E
:108F8000263097F8272097F826301343DBB299B2A2
:108F900007F11202022330481DF07EFC0346002B2D
:108FA0001CD03B8A1A467B681A602C4A2C492D48F3
:108FB0002AF0E0F92B48FFF763F903469AB24FF025
:108FC000FF332849284829F079F94FF4006200213D
:108FD00024482AF0D9F84FF0FF3338E097F82720DB
:108FE00097F826301343DBB243F00303DBB299B2A8
:108FF00007F11002022318481DF02FFC0346002B36
:109000001CD03B8A1A467B681A60144A14491548DA
:109010002AF0B0F91348FFF733F903469AB24FF03C
:10902000FF331049104829F049F94FF4006200213C
:109030000C482AF0A9F84FF0FF3308E03B8ABB61E7
:10904000BB695BBA7B617A697B681A60002318464A
:109050002837BD4680BD00BF784D0120B45D0308B0
:10906000FC3E0308EC440120F04F012080B58AB09B
:1090700000AFF860B9607A60002387F82730BB68DA
:109080001B0C87F82630BB689BB2BB61BB695BBA1F
:109090007B617B699BB27B827B689BB23B623B6A54
:1090A0005BBAFB61FB699BB23B8297F82630082BC9
:1090B00001D1002300E0042387F8263097F8272009
:1090C00097F826301343DBB299B207F1120202235C
:1090D00011481DF0E1FB0346002B02D04FF0FF3397
:1090E00016E097F8272097F826301343DBB243F0B9
:1090F0000203DBB299B207F11002022306481DF009
:10910000CBFB0346002B02D04FF0FF3300E00023DF
:1091100018462837BD4680BD784D012080B582B005
:1091200000AF00237B60A24B93F8813003F0010372
:10913000002B00F082809E4B002283F881209C4B04
:1091400093F88030502B05D10521002000F0EEF976
:10915000786066E0964B93F88030512B05D105215D
:10916000012000F0E3F978605BE0914B93F88030E8
:10917000522B05D10521022000F0D8F9786050E08B
:109180008B4B93F88030532B05D10521032000F041
:10919000CDF9786045E0864B93F88030542B05D1AB
:1091A0000521042000F0C2F978603AE0804B93F882
:1091B0008030552B05D10521052000F0B7F97860E6
:1091C0002FE07B4B93F88030A02B05D10A210020A3
:1091D00000F0ACF9786024E0754B93F88030A12B57
:1091E00005D10A21012000F0A1F9786019E0704B47
:1091F00093F88030A42B05D10A21042000F096F9C1
:1092000078600EE06A4B93F88030A52B05D10A21D7
:10921000052000F08BF9786003E0654B002283F8AD
:109220008020634B002283F881207B68002B04D1CF
:109230005F4B93F880205E4B1A705D4B93F8823041
:1092400003F00103002B0BD0594B002283F882203E
:1092500002F0B0F802F04CF902F0A2F902F01CFAA8
:10926000534B93F8833003F00103002B06D0504B8F
:10927000002283F88320012002F08AFA4C4B93F8F5
:10928000853003F00103002B05D0494B002283F801
:10929000852002F05FFD474B93F80032002B2FD062
:1092A000444B93F80032802B2AD8424B93F800327B
:1092B000013BDB019B00404A13444FF40072194606
:1092C0003C4829F053FF3B4B93F800321A463B4988
:1092D0003B482AF04FF83A48FEF7D2FF03469AB2CD
:1092E0004FF0FF333649374828F0E8FF4FF400626B
:1092F0000021334829F048FF2E4B002283F800223A
:109300002B4B93F8883003F00103002B07D0284B38
:10931000002283F888200123184602F087FF244B9F
:1093200093F8893003F00103002B07D0204B002273
:1093300083F889200023184602F078FF1C4B93F82D
:109340008C3003F00103002B05D0194B002283F869
:109350008C2003F0FBFF164B93F88F3003F00103D2
:10936000002B05D0124B002283F88F2004F0EAF87E
:109370000F4B93F8903003F00103002B05D00C4BFA
:10938000002283F8902004F0B7F9094B93F891304C
:1093900003F00103002B05D0054B002283F8912038
:1093A00002F0E4FE03F0C8F800BF0837BD4680BDF8
:1093B000B03E01205C3601209C100020103F0308C5
:1093C000EC440120F04F012080B584B000AF0023B1
:1093D000FB6001224021364823F08CFA052021F061
:1093E0003DF8012100200DF009FCF860FB68002B1E
:1093F00026D102F07DF82F4BDB88BB60BB685BBADF
:109400007B607B684AF6C042934216D12A4A2B49B8
:109410002B4829F0AFFF2A48FEF732FF03469AB2E5
:109420004FF0FF332649274828F048FF4FF40062E9
:109430000021234829F0A8FE02E04FF0FF33FB6033
:10944000FB68002B2CD0204B1B78042B28D8002243
:109450004021174823F04EFA052020F0FFFF1A4B59
:109460001B780133DAB2184B1A70174B1B78124A6B
:109470001649134829F07EFF1148FEF701FF034605
:109480009AB24FF0FF330E490E4828F017FF4FF401
:10949000006200210A4829F077FEFFF795FF03E0FC
:1094A000094B00221A7000BF00BF1037BD4680BDB7
:1094B00000080048B03E0120C45D03083C3F03089B
:1094C000EC440120F04F0120240C00204C3F030805
:1094D00080B584B000AF0023FB60124BDB88BB601B
:1094E000BB685BBA7B607B684AF6C04293420DD191
:1094F0000C4B502283F880200521002000F016F844
:10950000F8600023084918460EF036FBFB68002B74
:1095100004D1044B93F88020024B1A7000BF10371F
:10952000BD4680BDB03E012000093D0080B5ADF5CF
:10953000956D02AF0246FB1D1A70BB1D0A461A70DC
:109540000023C7F89C340023C7F89834002387F819
:1095500097340023C7F89034BB1D1A78FB1D197887
:1095600007F10C0300930023D7F890040DF010FFCF
:109570000246D7F89C341343C7F89C34B04AFB1D0D
:109580001B789370AE4ABB1D1B78D370FB1D1B78F4
:10959000012B03D0FB1D1B78042B06D1012387F878
:1095A0008D34002387F88C3414E0FB1D1B78022BCC
:1095B00003D0FB1D1B78052B06D1002387F88D34C3
:1095C000012387F88C3405E0012387F88D340123CB
:1095D00087F88C34BB1D1B780A2B09D1994BC7F82F
:1095E0009834012387F89734002387F88E3408E0F5
:1095F000954BC7F89834002387F89734012387F8F0
:109600008E34FB1D1B78042B20D18D4B022283F856
:1096100050208B4B0F2283F85120894B032283F873
:109620005420874B0F2283F85520854B012283F865
:109630005820834B0F2283F85920814B042283F852
:109640005C207F4B0F2283F85D20F4E0FB1D1B782C
:10965000052B60D17A4B012283F86020784B0022E1
:1096600083F86120764B022283F86220744B00223B
:1096700083F86320724B032283F86420704B00222E
:1096800083F865206E4B042283F866206C4B002221
:1096900083F867206A4B052283F86820684B002214
:1096A00083F86920664B062283F86A20644B002207
:1096B00083F86B20624B072283F86C20604B0022FA
:1096C00083F86D205E4B082283F86E205C4B0022ED
:1096D00083F86F205A4B012283F87820584B0222DE
:1096E00083F87920564B032283F87A20544B0422C6
:1096F00083F87B20524B052283F87C20504B0622B6
:1097000083F87D204E4B072283F87E204C4B0822A5
:1097100083F87F208FE04A4B032283F85020484B88
:10972000042283F85120464B052283F85420444BF1
:10973000062283F85520424B012283F85820404BE3
:10974000022283F859203E4B072283F85C203C4BD1
:10975000082283F85D203A4B032283F87020384BAF
:10976000052283F87120364B012283F87220344B96
:10977000072283F87320324B032283F86020304B9A
:10978000002283F861202E4B032283F862202C4BA9
:10979000012283F863202A4B012283F86420284B9E
:1097A000002283F86520264B012283F86620244B93
:1097B000012283F86720224B022283F86820204B85
:1097C000002283F869201E4B022283F86A201C4B7A
:1097D000012283F86B201A4B042283F86C20184B6B
:1097E000002283F86D20164B042283F86E20144B60
:1097F000012283F86F20124B032283F87820104B4C
:10980000032283F879200E4B012283F87A200C4B37
:10981000012283F87B200A4B022283F87C20084B2C
:10982000022283F87D20064B042283F87E20044B1D
:10983000042283F87F20012387F88B348BE000BF5C
:10984000DC350120C44F9501889F2A0397F88B349B
:10985000013BCD4A5B0113441A7897F88B34013BE6
:1098600022F00102D1B2C84A5B0113440A461A70C1
:1098700097F88B34013BC44A5B011344197897F87D
:109880008D2497F88B34013B0A43D1B2BE4A5B0169
:1098900013440A461A7097F88B34013BD7F8982482
:1098A000C7F88024D7F8802412BAB7495B010B446B
:1098B00004331A6097F88B345A1EB34913465B0081
:1098C00013449B000B4403F5C0731B7897F88B245B
:1098D000013A23F00103D8B2AB4913465B001344AD
:1098E0009B000B4403F5C07302461A7097F88B3443
:1098F0005A1EA54913465B0013449B000B4403F515
:10990000C073197897F88D3497F88B24013A0B437C
:10991000D8B29D4913465B0013449B000B4403F5EA
:10992000C07302461A7097F88B345A1ED7F89834D1
:10993000C7F88434D7F8843419BA934813465B00C7
:1099400013449B00034403F5C273196097F88B34EA
:10995000013387F88B3497F88B34042B7FF676AF7E
:10996000012387F88F34BAE097F88F34013B864A99
:1099700004335B0113441A7897F88F34013B22F0CB
:109980000B02D1B2804A04335B0113440A461A70B9
:1099900097F88F34013B7C4A04335B0113441978F8
:1099A00097F88C2497F88F34013B0A43D1B2764A5A
:1099B00004335B0113440A461A7097F88F34013B55
:1099C000714A04335B0113441B785AB297F89734F9
:1099D0005B005BB213435AB297F88F34013BD1B2AC
:1099E000694A04335B0113440A461A7097F88F34AE
:1099F000013B654A04335B0113441B785AB297F864
:109A00008E34DB005BB213435AB297F88F34013BBC
:109A1000D1B25D4A04335B0113440A461A7097F8C9
:109A20008F34013B584A20331B0113441A7897F8AE
:109A30008F34013B22F00B02D1B2534A20331B0179
:109A400013440A461A7097F88F34013B4E4A20336C
:109A50001B011344197897F88C2497F88F34013B35
:109A60000A43D1B2484A20331B0113440A461A70F4
:109A700097F88F34013B444A20331B0113441B7871
:109A80005AB297F897345B005BB213435AB297F817
:109A90008F34013BD1B23C4A20331B0113440A46A8
:109AA0001A7097F88F34013B374A20331B01134457
:109AB0001B785AB297F88E34DB005BB213435AB26C
:109AC00097F88F34013BD1B22F4A20331B01134446
:109AD0000A461A7097F88F34013387F88F3497F855
:109AE0008F34082B7FF640AF07F10C03184600F0C7
:109AF0004DF807F10C03184600F0C0FB07F10C030A
:109B0000184601F043F907F10C031946D7F8900401
:109B10000EF076FF07F10C031946D7F890040DF00C
:109B2000CAFF0246D7F89C341343C7F89C34D7F8D1
:109B30009C34002B02D0D7F89C3420E007F10C03B2
:109B40001946D7F890040DF0EFFF0246D7F89C3481
:109B50001343C7F89C34D7F89C34002B02D0D7F8B5
:109B60009C340CE0D7F89C34002B02D0D7F89C34FE
:109B700005E04FF47A7020F071FCD7F89C34184659
:109B800007F59467BD4680BD5C3A012090B593B05F
:109B900000AF7860002387F84730002387F846300D
:109BA000012387F847309EE197F84730013BB44ADC
:109BB0005B0113441B7803F0010397F84720002B47
:109BC00014BF01230023D8B279681346DB00134485
:109BD0009B000B4403F5137302461A7097F8473045
:109BE000013BA74A5B0113441B785B10DBB297F87B
:109BF000472003F00103D8B279681346DB00134411
:109C00009B000B4403F24E2302461A7097F847302C
:109C1000013B9B4A5B0113441B789B1003F001033B
:109C200097F84720002B14BF01230023D8B279688E
:109C30001346DB0013449B000B4403F255230246FA
:109C40001A7097F84730013B8D4A5B0113441B782B
:109C5000DB1003F0010397F84720002B14BF01230A
:109C60000023D8B279681346DB0013449B000B44F1
:109C700003F2562302461A7097F84730013B804A98
:109C80005B0113441B781B1103F0010397F8472075
:109C9000002B14BF01230023D8B279681346DB00E0
:109CA00013449B000B4403F2572302461A7097F8A3
:109CB0004730013B724A5B01134401331B7803F0C8
:109CC000010397F84720002B14BF01230023D8B2CB
:109CD00079681346DB0013449B000B4403F24D23C9
:109CE00002461A7097F84730013B654A5B011344FE
:109CF00001331B785B1003F0010397F84720002B1A
:109D000014BF01230023D8B279681346DB00134443
:109D10009B000B4403F51B7302461A7097F84730FB
:109D2000013B574A5B01134401331B789B10DBB2A4
:109D300097F8472003F00103D8B279681346DB0097
:109D400013449B000B4403F26D2302461A7097F8EC
:109D50004730013B4A4A5B01134401331B78DB1057
:109D600003F0010397F84720002B14BF01230023C1
:109D7000D8B279681346DB0013449B000B4403F20E
:109D80006E2302461A7097F84730013B3C4A5B014C
:109D9000134402331B7897F8472003F00303D8B22B
:109DA00079681346DB0013449B000B4403F51573DD
:109DB00002461A7097F84730013B314A5B01134461
:109DC00003331B7897F8472003F00703D8B279686C
:109DD0001346DB0013449B000B4403F51673024645
:109DE0001A7097F84730013B254A5B01134404334E
:109DF0001B6897F847203B633B6B19BA786813469A
:109E0000DB0013449B00034403F51473196097F8B7
:109E10004730013B1A4A5B01134408331B88BB637C
:109E2000BB6B5BBA7B637B6B97F8472098B2796812
:109E30001346DB0013449B000B4403F51A730246E0
:109E40001A8097F84730013B0D4A5B0113440A33EF
:109E50001B883B643B6C5BBAFB63FB6B97F847204A
:109E600098B279681346DB0013449B000B4403F25D
:109E70006A2302461A80002387F846302AE000BF92
:109E80005C3A012097F847305A1E97F846301A4935
:109E90001201134404335B000B44B3F90430FB623A
:109EA000FB6A5BBABB62BB6A97F8472097F846002B
:109EB0001CB279681346DB0013445B00034403F5CE
:109EC00094735B000B4422465A8197F84630013365
:109ED00087F8463097F84630062BD3D997F84730A5
:109EE000013387F8473097F84730042B7FF65CAE94
:109EF000012387F84730B4E15C3A012097F84730F6
:109F0000184602F0C1FA034687F8453097F8473003
:109F1000013BBA4A04335B0113441B7803F001038D
:109F200097F84520002B14BF01230023D8B279688D
:109F30001346DB0013449B000B4403F540730246B9
:109F40001A7097F84730013BAC4A04335B01134465
:109F50001B785B10DBB297F8452003F00103D8B201
:109F600079681346DB0013449B000B4403F2023371
:109F700002461A7097F84730013BA04A04335B0150
:109F800013441B789B1003F0010397F84520002B26
:109F900014BF01230023D8B279681346DB001344B1
:109FA0009B000B4403F2093302461A7097F84730BE
:109FB000013B924A04335B0113441B78DB1003F02E
:109FC000010397F84520002B14BF01230023D8B2CA
:109FD00079681346DB0013449B000B4403F20A33F9
:109FE00002461A7097F84730013B844A04335B01FC
:109FF00013441B781B1103F0010397F84520002B35
:10A0000014BF01230023D8B279681346DB00134440
:10A010009B000B4403F20B3302461A7097F847304B
:10A02000013B764A04335B01134401331B7803F090
:10A03000010397F84520002B14BF01230023D8B259
:10A0400079681346DB0013449B000B4403F2013391
:10A0500002461A7097F84730013B684A04335B01A7
:10A06000134401331B785B1003F0010397F845207C
:10A07000002B14BF01230023D8B279681346DB00FC
:10A0800013449B000B4403F5487302461A7097F87B
:10A090004730013B594A04335B01134401331B78B9
:10A0A0009B10DBB297F8452003F00103D8B2796822
:10A0B0001346DB0013449B000B4403F2213302469A
:10A0C0001A7097F84730013B4C4A04335B01134444
:10A0D00001331B78DB1003F0010397F84520002BB8
:10A0E00014BF01230023D8B279681346DB00134460
:10A0F0009B000B4403F2223302461A7097F8473054
:10A10000013B3E4A04335B01134402331B7897F84A
:10A11000452003F00303D8B279681346DB001344EB
:10A120009B000B4403F5427302461A7097F84730C0
:10A13000013B324A04335B01134403331B7897F825
:10A14000452003F00703D8B279681346DB001344B7
:10A150009B000B4403F5437302461A7097F847308F
:10A16000013B264A04335B01134404331B6897F810
:10A1700045207B617B6919BA78681346DB0013447C
:10A180009B00034403F54173196097F84730013B86
:10A190001A4A5B01134488331B88FB61FB695BBA75
:10A1A000BB61BB6997F8452098B279681346DB001C
:10A1B00013449B000B4403F5477302461A8097F83B
:10A1C0004730013B0D4A5B0113448A331B887B6295
:10A1D0007B6A5BBA3B623B6A97F8452098B2796824
:10A1E0001346DB0013449B000B4403F21E3302466C
:10A1F0001A80002387F846302AE000BF5C3A01202D
:10A2000097F847305A1E97F846301B4912011344FD
:10A2100044335B000B44B3F904303B613B695BBAE8
:10A22000FB60FB6897F8452097F846001CB27968F8
:10A230001346DB0013445B00034403F5C2735B0069
:10A240000B442246DA8097F84630013387F84630CF
:10A2500097F84630062BD3D997F84730013387F863
:10A26000473097F84730082B7FF648AE00BF00BF55
:10A270004C37BD4690BD00BF5C3A012080B48BB026
:10A2800000AF7860002387F82730012387F8273054
:10A2900093E297F827305A1ECF4913465B001344C8
:10A2A0009B000B4403F5C0731B7803F0010397F880
:10A2B0002720002B14BF01230023D8B2796813464E
:10A2C000DB009B1A9B000B44583302461A7097F828
:10A2D00027305A1EC04913465B0013449B000B44B1
:10A2E00003F5C0731B785B10DBB297F8272003F0EF
:10A2F0000103D8B279681346DB009B1A9B000B441C
:10A30000593302461A7097F827305A1EB24913463D
:10A310005B0013449B000B4403F5C0731B789B1038
:10A3200003F0010397F82720002B14BF012300231B
:10A33000D8B279681346DB009B1A9B000B4460334C
:10A3400002461A7097F827305A1EA34913465B003D
:10A3500013449B000B4403F5C0731B78DB1003F020
:10A36000010397F82720002B14BF01230023D8B244
:10A3700079681346DB009B1A9B000B44613302464D
:10A380001A7097F827305A1E934913465B001344FE
:10A390009B000B4403F5C0731B781B1103F00103F2
:10A3A00097F82720002B14BF01230023D8B2796827
:10A3B0001346DB009B1A9B000B44623302461A7063
:10A3C00097F827305A1E844913465B0013449B00BC
:10A3D0000B4403F281131B7803F0010397F8272045
:10A3E000002B14BF01230023D8B279681346DB0089
:10A3F0009B1A9B000B44633302461A7097F8273070
:10A400005A1E754913465B0013449B000B4403F22C
:10A4100081131B785B1003F0010397F82720002BB2
:10A4200014BF01230023D8B279681346DB009B1ABE
:10A430009B000B44643302461A7097F827305A1E6B
:10A44000654913465B0013449B000B4403F28113E0
:10A450001B789B1003F0010397F82720002B14BFF3
:10A4600001230023D8B279681346DB009B1A9B00B6
:10A470000B446B3302461A7097F827305A1E564920
:10A4800013465B0013449B000B4403F5C1731B7818
:10A4900003F0010397F82720002B14BF01230023AA
:10A4A000D8B279681346DB009B1A9B000B446733D4
:10A4B00002461A7097F827305A1E474913465B0028
:10A4C00013449B000B4403F5C1731B785B1003F02E
:10A4D000010397F82720002B14BF01230023D8B2D3
:10A4E00079681346DB009B1A9B000B4468330246D5
:10A4F0001A7097F827305A1E374913465B001344E9
:10A500009B000B4403F5C1731B789B1003F0010300
:10A5100097F82720002B14BF01230023D8B27968B5
:10A520001346DB009B1A9B000B44693302461A70EA
:10A5300097F827305A1E284913465B0013449B00A6
:10A540000B4403F5C1731B78DB1003F0010397F88C
:10A550002720002B14BF01230023D8B279681346AB
:10A56000DB009B1A9B000B446A3302461A7097F873
:10A5700027305A1E184913465B0013449B000B44B6
:10A5800003F5C1731B781B1103F0010397F8272013
:10A59000002B14BF01230023D8B279681346DB00D7
:10A5A0009B1A9B000B446C3302461A7097F82730B5
:10A5B0005A1E094913465B0013449B000B4403F5E4
:10A5C000C1731B785B1103F0010397F82720002B60
:10A5D00018BF012302E000BF5C3A012008BF00233E
:10A5E000D8B279681346DB009B1A9B000B446D338D
:10A5F00002461A7097F827305A1E744913465B00BA
:10A6000013449B000B4403F5C1731B789B1103F0AB
:10A61000010397F82720002B14BF01230023D8B291
:10A6200079681346DB009B1A9B000B446E3302468D
:10A630001A7097F827305A1E644913465B0013447A
:10A640009B000B4403F5C1731B785BB2DB115BB25B
:10A6500003F0010397F82720002B14BF01230023E8
:10A66000D8B279681346DB009B1A9B000B446F330A
:10A6700002461A7097F827305A1E544913465B0059
:10A6800013449B000B4403F283131B7803F0010374
:10A6900097F82720002B14BF01230023D8B2796834
:10A6A0001346DB009B1A9B000B44703302461A7062
:10A6B00097F827305A1E454913465B0013449B0008
:10A6C0000B4403F283131B785B1003F0010397F82C
:10A6D0002720002B14BF01230023D8B2796813462A
:10A6E000DB009B1A9B000B44713302461A7097F8EB
:10A6F00027305A1E354913465B0013449B000B4418
:10A7000003F5C2731B6897F827203B623B6A19BAAE
:10A7100078681346DB009B1A9B0003445C33196086
:10A7200097F82730591E97F8272028480B465B00DA
:10A730000B449B00034403F5C473187879681346EF
:10A74000DB009B1A9B000B44653302461A7097F896
:10A750002730591E97F827201C480B465B000B44F6
:10A760009B00034403F28913187879681346DB00D1
:10A770009B1A9B000B44663302461A7097F82730E9
:10A780005A1E124913465B0013449B000B4403F509
:10A79000C5731B7897F8272003F00703D8B27968B0
:10A7A0001346DB009B1A9B000B44723302461A705F
:10A7B00097F82730013387F8273097F82730042B94
:10A7C0007FF667AD012387F82730D1E25C3A01209C
:10A7D00097F82730013BCA4A20331B0113441B78EA
:10A7E00003F0010397F82720002B14BF0123002357
:10A7F000D8B2796813469B001344DB000B44E43362
:10A8000002461A7097F82730013BBD4A20331B01DE
:10A8100013441B785B10DBB297F8272003F0010389
:10A82000D8B2796813469B001344DB000B44E53330
:10A8300002461A7097F82730013BB14A20331B01BA
:10A8400013441B789B1003F0010397F82720002B7B
:10A8500014BF01230023D8B2796813469B00134428
:10A86000DB000B44ED3302461A7097F82730013BAA
:10A87000A34A20331B0113441B78DB1003F00103B0
:10A8800097F82720002B14BF01230023D8B2796842
:10A8900013469B001344DB000B44EC3302461A7052
:10A8A00097F82730013B964A20331B0113441B784D
:10A8B0001B1103F0010397F82720002B14BF01237D
:10A8C0000023D8B2796813469B001344DB000B4485
:10A8D000EE3302461A7097F82730013B884A20333E
:10A8E0001B01134401331B7803F0010397F8272061
:10A8F000002B14BF01230023D8B2796813469B00B4
:10A900001344DB000B44EF3302461A7097F82730EC
:10A91000013B7B4A20331B01134401331B785B103E
:10A9200003F0010397F82720002B14BF0123002315
:10A93000D8B2796813469B001344DB000B44F03314
:10A9400002461A7097F82730013B6D4A20331B01ED
:10A95000134401331B789B1003F0010397F8272061
:10A96000002B14BF01230023D8B2796813469B0043
:10A970001344DB000B44F43302461A7097F8273077
:10A98000013B5F4A20331B01134401331B78DB106A
:10A9900003F0010397F82720002B14BF01230023A5
:10A9A000D8B2796813469B001344DB000B44F5339F
:10A9B00002461A7097F82730013B514A20331B0199
:10A9C000134401331B781B1103F0010397F8272070
:10A9D000002B14BF01230023D8B2796813469B00D3
:10A9E0001344DB000B44F63302461A7097F8273005
:10A9F000013B434A20331B01134401331B785B1195
:10AA000003F0010397F82720002B14BF0123002334
:10AA1000D8B2796813469B001344DB000B44FA3329
:10AA200002461A7097F82730013B354A20331B0144
:10AA3000134401331B789B1103F0010397F827207F
:10AA4000002B14BF01230023D8B2796813469B0062
:10AA50001344DB000B44FB3302461A7097F827308F
:10AA6000013B274A20331B01134401331B785BB29F
:10AA7000DB115BB203F0010397F82720002B14BF12
:10AA800001230023D8B2796813469B001344DB00EE
:10AA90000B44FC3302461A7097F82730013B184AE2
:10AAA00020331B01134402331B7803F0010397F892
:10AAB0002720002B14BF01230023D8B27968134646
:10AAC0009B001344DB000B44FD3302461A7097F8D9
:10AAD0002730013B0A4A20331B01134402331B7801
:10AAE0005B1003F0010397F82720002B14BF01230C
:10AAF0000023D8B2796813469B00134402E000BFDC
:10AB00005C3A0120DB000B44FE3302461A7097F8D2
:10AB10002730013B9C4A20331B01134402331B782E
:10AB20009B1003F0010397F82720002B14BF01238B
:10AB30000023D8B2796813469B001344DB000B4412
:10AB4000FF3302461A7097F82730013B8E4A2033B4
:10AB50001B01134402331B78DB1003F0010397F849
:10AB60002720002B14BF01230023D8B27968134695
:10AB70009B001344DB000B4403F5807302461A70FC
:10AB800097F82730013B804A20331B0113440233DE
:10AB90001B781B1103F0010397F82720002B14BF2B
:10ABA00001230023D8B2796813469B001344DB00CD
:10ABB0000B4403F2011302461A7097F82730013B49
:10ABC000714A20331B01134402331B785B1103F0DD
:10ABD000010397F82720002B14BF01230023D8B2CC
:10ABE000796813469B001344DB000B4403F5817323
:10ABF00002461A7097F82730013B634A20331B0145
:10AC0000134402331B789B1103F0010397F82720AC
:10AC1000002B14BF01230023D8B2796813469B0090
:10AC20001344DB000B4403F2031302461A7097F837
:10AC30002730013B544A20331B01134402331B7855
:10AC40005BB2DB115BB203F0010397F82720002B06
:10AC500014BF01230023D8B2796813469B00134424
:10AC6000DB000B4403F5847302461A7097F8273013
:10AC7000013B454A20331B01134403331B7803F087
:10AC8000010397F82720002B14BF01230023D8B21B
:10AC9000796813469B001344DB000B4403F209134D
:10ACA00002461A7097F82730013B374A20331B01C0
:10ACB000134404331B6897F82720BB60BB6819BA9C
:10ACC000786813469B001344DB000344E8331960A3
:10ACD00097F82730013B2C4A1B01134403F50273FC
:10ACE0001B6897F82720FB60FB6819BA7868134641
:10ACF0009B001344DB00034403F58273196097F84B
:10AD00002730013B204A1B01134403F503731B88C2
:10AD10007B617B695BBA3B613B6997F8272098B2FE
:10AD2000796813469B001344DB000B44F233024660
:10AD30001A8097F82730013B134A1B01134403F292
:10AD40000E231B88FB61FB695BBABB61BB6997F88B
:10AD5000272098B2796813469B001344DB000B440C
:10AD6000F83302461A8097F82730013387F82730E6
:10AD700097F82730082B7FF62BAD00BF00BF2C378C
:10AD8000BD465DF8047B70475C3A012080B487B013
:10AD900000AF7860A84B1A787B681A70A64B5A7877
:10ADA0007B685A70A44B9A787B689A70A24BDA78C9
:10ADB0007B68DA70A04B1A797B681A719E4B5A79BE
:10ADC0007B681A749C4B9B79002B14BF01230023D2
:10ADD000DAB27B681A76984BDB79002B14BF01231B
:10ADE0000023DAB27B6883F82020934B1B7A002B78
:10ADF00014BF01230023DAB27B6883F821208E4B35
:10AE00005A7A7B6883F86D248B4B9A7A7B6883F837
:10AE10006E24894BDA7A7B6883F86F24864B1A7B21
:10AE20007B6883F87024844B5A7B7B6883F8712499
:10AE3000814B9A7B7B6883F872247F4B1B69BB60D4
:10AE4000BB681ABA7B689A607B4B5B69FB60FB68E6
:10AE50001ABA7B68DA60784B9B693B613B691ABA26
:10AE60007B685A61744BDB697B617B691ABA7B68CA
:10AE7000DA61714B93F82030002B14BF01230023BB
:10AE8000DAB27B6883F844246B4B93F821207B680B
:10AE900083F84524684B93F822207B6883F8462486
:10AEA000654B93F823207B6883F84724624B93F823
:10AEB00024207B6883F848245F4B93F825207B6827
:10AEC00083F849245C4B93F826207B6883F84A2456
:10AED000594B93F827207B6883F84B24564B93F803
:10AEE00028207B6883F84C24534B93F83030002B98
:10AEF00014BF01230023DAB27B6883F84D244E4B44
:10AF000093F831207B6883F84E244B4B93F8322022
:10AF10007B6883F84F24484B93F833207B6883F891
:10AF20005024454B93F834207B6883F85124424BDE
:10AF300093F835207B6883F852243F4B93F83620F2
:10AF40007B6883F853243C4B93F837207B6883F865
:10AF50005424394B93F838207B6883F85524364BBA
:10AF600093F8403003F00103002B14BF01230023AA
:10AF7000DAB27B6883F856242F4B93F840305B108D
:10AF800003F00103002B14BF01230023DAB27B6816
:10AF900083F85724284B93F840309B1003F00103AB
:10AFA000002B14BF01230023DAB27B6883F85824F6
:10AFB000214B93F84030DB1003F00103002B14BF4A
:10AFC00001230023DAB27B6883F85A241A4B93F8E2
:10AFD00040301B1103F00103002B14BF0123002399
:10AFE000DAB27B6883F85B24134B93F840305B1133
:10AFF00003F00103002B14BF01230023DAB27B68A6
:10B0000083F85C240C4B93F840309B1103F0010350
:10B01000002B14BF01230023DAB27B6883F862247B
:10B02000054B93F840305BB2DB115BB203F00103D8
:10B03000002B18BF012301E0DC35012008BF0023ED
:10B04000DAB27B6883F86324B94B93F8413003F09C
:10B050000103002B14BF01230023DAB27B6883F8BD
:10B060006424B34B93F841305B1003F00103002BD1
:10B0700014BF01230023DAB27B6883F86524AC4B4C
:10B0800093F841309B1003F00103002B14BF012300
:10B090000023DAB27B6883F86624A54B93F841302D
:10B0A000DB1003F00103002B14BF01230023DAB2ED
:10B0B0007B6883F867249E4B93F841301B1103F0A3
:10B0C0000103002B14BF01230023DAB27B6883F84D
:10B0D0006824974B93F841305B1103F00103002B78
:10B0E00014BF01230023DAB27B6883F86924904BF4
:10B0F00093F841309B1103F00103002B14BF01238F
:10B100000023DAB27B6883F86A24894B93F84130D4
:10B110005BB2DB115BB203F00103002B14BF012310
:10B120000023DAB27B6883F86B24814B93F84230BA
:10B1300003F00103002B14BF01230023DAB27B6864
:10B1400083F86C247A4B93F844207B6883F8592465
:10B15000774B93F845207B6883F85D24744B93F814
:10B1600046207B6883F85E24714B93F847207B6808
:10B1700083F85F246E4B93F848207B6883F8602443
:10B180006B4B93F849207B6883F86124684B93F8F4
:10B1900050207B6883F82620654B93F851207B680C
:10B1A00083F82720624B93F852207B6883F828208D
:10B1B0005F4B93F853207B6883F829205C4B93F80E
:10B1C00054207B6883F82A20594B93F855207B68DC
:10B1D00083F82B20564B93F856207B6883F82C205D
:10B1E000534B93F857207B6883F82D20504B93F8EE
:10B1F00058207B6883F82E204D4B93F859207B68AC
:10B2000083F82F204A4B93F85A207B6883F830202C
:10B21000474B93F85B207B6883F83120444B93F8CD
:10B220005C207B6883F83220414B93F85D207B687B
:10B2300083F833203E4B93F85E207B6883F83420FC
:10B240003B4B93F85F207B6883F83520384B93F8AD
:10B2500060207B6883F83D20354B93F861207B6844
:10B2600083F83E20324B93F862207B6883F83F20BE
:10B270002F4B93F863207B6883F840202C4B93F886
:10B2800064207B6883F84120294B93F865207B6814
:10B2900083F84220264B93F866207B6883F843208E
:10B2A000234B93F867207B6883F84420204B93F866
:10B2B00068207B6883F845201D4B93F869207B68E4
:10B2C00083F846201A4B93F86A207B6883F847205E
:10B2D000174B93F86B207B6883F84820144B93F846
:10B2E0006C207B6883F84920114B93F86D207B68B4
:10B2F00083F84A200E4B93F86E207B6883F84B202E
:10B300000B4B93F86F207B6883F84C20084B93F825
:10B3100070207B6883F83720054B93F871207B6899
:10B3200083F83820024B93F872207B6802E000BF5C
:10B33000DC35012083F839201D4B93F873207B689E
:10B3400083F83A201A4B93F878207B6883F84E20D4
:10B35000174B93F879207B6883F84F20144B93F8B0
:10B360007A207B6883F85020114B93F87B207B6810
:10B3700083F851200E4B93F87C207B6883F8522091
:10B380000B4B93F87D207B6883F85320084B93F890
:10B390007E207B6883F85420054B93F87F207B68E0
:10B3A00083F8552000BF1C37BD465DF8047B70470D
:10B3B000DC35012080B586B000AF00237B6100231F
:10B3C0007B800020BB1C1A464049FDF7B9FD78611F
:10B3D0007B883B613B695BBAFB60FB689AB23C4B84
:10B3E0005A807B69002B17D17B881A4639493A4825
:10B3F00027F0C0FF3848FCF743FF03469AB24FF0EE
:10B40000FF333549354826F059FF4FF400620021DB
:10B41000314827F0B9FE14E031492F4827F0AAFF40
:10B420002D48FCF72DFF03469AB24FF0FF332A490F
:10B430002A4826F043FF4FF400620021264827F0F7
:10B44000A3FE0020BB1C1A462649FDF779FD786152
:10B450007B88BB60BB685BBA7B607B689AB21C4B25
:10B460009A807B69002B17D17B881A461E491A489F
:10B4700027F080FF1848FCF703FF03469AB24FF00D
:10B48000FF331549154826F019FF4FF400620021DB
:10B49000114827F079FE14E014490F4827F06AFF9D
:10B4A0000D48FCF7EDFE03469AB24FF0FF330A4910
:10B4B0000A4826F003FF4FF400620021064827F0F7
:10B4C00063FE00BF1837BD4680BD00BF02001E00EE
:10B4D000B03E0120683F0308EC440120F04F0120FA
:10B4E000903F030803001E00BC3F0308E83F030829
:10B4F00080B584B000AF0023FB6000237B80002078
:10B50000BB1C1A462049FDF71BFDF8607B88BB6019
:10B51000BB685BBA7B607B689AB21C4BDA80FB68C5
:10B52000002B17D17B881A4619491A4827F022FFA9
:10B530001848FCF7A5FE03469AB24FF0FF331549B1
:10B54000154826F0BBFE4FF400620021114827F099
:10B550001BFE14E011490F4827F00CFF0D48FCF7C3
:10B560008FFE03469AB24FF0FF330A490A4826F08D
:10B57000A5FE4FF400620021064827F005FE00BF3B
:10B580001037BD4680BD00BF61E01E00B03E012007
:10B5900014400308EC440120F04F0120344003081C
:10B5A00080B584B002AF00237B6000233B600020A5
:10B5B0003B461A463149FDF7C3FC78603B881B0ABD
:10B5C0009BB2DAB22E4B1A723B88DAB22C4B5A720B
:10B5D00000203B4602331A462A49FDF7B1FC0246D9
:10B5E0007B6813437B607B881B0A9BB2DAB2244BD7
:10B5F0009A727B88DAB2224BDA727B68002B24D1F4
:10B600003B881B0B9BB218463B881B11DAB23B8868
:10B6100003F00F03798801910093134602461A49FB
:10B620001A4827F0A7FE1948FCF72AFE03469AB2EB
:10B630004FF0FF331549164826F040FE4FF40062E4
:10B640000021124827F0A0FD14E012490F4827F00E
:10B6500091FE0E48FCF714FE03469AB24FF0FF33FA
:10B660000A490B4826F02AFE4FF4006200210748E1
:10B6700027F08AFD00BF0837BD4680BD53E01E009D
:10B68000B03E012052E01E0054400308EC4401206B
:10B69000F04F01207C40030880B584B002AF002346
:10B6A0007B6000233B6000203B461A463149FDF792
:10B6B00047FC78603B881B0A9BB2DAB22E4B1A73A8
:10B6C0003B88DAB22C4B5A7300203B4602331A46B1
:10B6D0002A49FDF735FC02467B6813437B607B8873
:10B6E0001B0A9BB2DAB2244B9A737B88DAB2224BE4
:10B6F000DA737B68002B24D13B881B0B9BB2184666
:10B700003B881B11DAB23B8803F00F037988019163
:10B710000093134602461A491A4827F02BFE19488F
:10B72000FCF7AEFD03469AB24FF0FF3315491648B9
:10B7300026F0C4FD4FF400620021124827F024FDDA
:10B7400014E012490F4827F015FE0E48FCF798FD4B
:10B7500003469AB24FF0FF330A490B4826F0AEFD7C
:10B760004FF400620021074827F00EFD00BF0837A4
:10B77000BD4680BD5FE01E00B03E01205EE01E00C1
:10B78000A8400308EC440120F04F0120CC400308FE
:10B7900080B5B2B000AF0346FB710023C7F8C430D8
:10B7A000002207F10C03194610460CF0FFF9C7F808
:10B7B000C400FA7907F10C031146184600F03AF874
:10B7C000FB79002B10D0D7F8C430002B0CD100220D
:10B7D00007F10C03194610460CF055FC0246D7F849
:10B7E000C4301343C7F8C430D7F8C430002B15D089
:10B7F0000C4A0D490D4827F0BDFD0C48FCF740FDF3
:10B8000003469AB24FF0FF330849094826F056FD27
:10B810004FF400620021054827F0B6FC00BFC8378E
:10B82000BD4680BDD85D0308F4400308EC44012008
:10B83000F04F012080B584B000AF78600B46FB70FC
:10B840007B681B781A468D4B1A70052200218C48A4
:10B8500027F09AFC0023FB7393E0884B5B785AB285
:10B86000FB7B013379680B445B781946FB7B01FA5B
:10B8700003F35BB213435BB2DAB2804B5A707F4B77
:10B880001B795AB2FB7B013379680B441B7F194645
:10B89000FB7B01FA03F35BB213435BB2DAB2774B83
:10B8A0001A71FB78002B69D0744B9B785AB2FB7BE2
:10B8B000013379680B449B7A1946FB7B01FA03F349
:10B8C0005BB213435BB2DAB26C4B9A706B4BDB78B2
:10B8D0005AB2FB7B013379680B44DB7C1946FB7B56
:10B8E00001FA03F35BB213435BB2DAB2634BDA7073
:10B8F000624B5B795AB2FB7B013379680B4493F856
:10B9000025301946FB7B01FA03F35BB213435BB2AC
:10B91000DAB25A4B5A71FB7B584A13449979FB7B34
:10B9200001337A68134493F82E20FB7B0A43D1B28B
:10B93000524A13440A469A71FB7B504A1344997B3E
:10B94000FB7B01337A68134493F83720FB7B0A436F
:10B95000D1B24A4A13440A469A73FB7B474A1344BE
:10B96000997DFB7B01337A68134493F84020FB7B7D
:10B970000A43D1B2414A13440A469A75FB7B01330C
:10B98000FB73FB7B072B7FF668AF022200213D484B
:10B9900027F0FAFB0023FB7364E0384B9B7F5AB21D
:10B9A000FB7B013379680B4493F849301946FB7BE4
:10B9B00001FA03F35BB213435BB2DAB22F4B9A770F
:10B9C000FB78002B4BD02D4BDB7F5AB2FB7B013336
:10B9D00079680B4493F852301946FB7B01FA03F364
:10B9E0005BB213435BB2DAB2244BDA77FB7B234AB8
:10B9F000134493F82010FB7B01337A68134493F8C7
:10BA00005B20FB7B0A43D1B21C4A13440A4683F8ED
:10BA10002020FB7B194A134493F82810FB7B013349
:10BA20007A68134493F86420FB7B0A43D1B2134A2B
:10BA300013440A4683F82820FB7B104A134493F8EA
:10BA40003010FB7B01337A68134493F86D20FB7B45
:10BA50000A43D1B2094A13440A4683F83020FB7BDB
:10BA60000133FB73FB7B072B97D902220021064889
:10BA700027F08AFB0023FB7371E000BFDC39012053
:10BA8000DD390120FA390120143A0120AD4B93F839
:10BA900038305AB2FB7B013379680B4493F8763027
:10BAA0001946FB7B01FA03F35BB213435BB2DAB2D4
:10BAB000A44B83F83820FB78002B4DD0A14B93F892
:10BAC00039305AB2FB7B013379680B4493F87B30F1
:10BAD0001946FB7B01FA03F35BB213435BB2DAB2A4
:10BAE000984B83F83920FB7B964A134493F83A101D
:10BAF000FB7B01337A68134493F88020FB7B0A4375
:10BB0000D1B2904A13440A4683F83A20FB7B8D4A0F
:10BB1000134493F83E10FB7B01337A68134493F887
:10BB20008520FB7B0A43D1B2864A13440A4683F838
:10BB30003E20FB7B834A134493F84210FB7B013386
:10BB40007A68134493F88A20FB7B0A43D1B27D4A7A
:10BB500013440A4683F84220FB7B0133FB73FB7BD3
:10BB6000032B93D904220021774827F00DFB0023F3
:10BB7000FB7392E0734B93F846305AB2FB7B013370
:10BB800079680B4493F88F301946FB7B01FA03F375
:10BB90005BB213435BB2DAB26A4B83F84620694B5F
:10BBA00093F848305AB2FB7B013379680B4493F821
:10BBB00099301946FB7B01FA03F35BB213435BB286
:10BBC000DAB2604B83F84820FB78002B62D05D4BE3
:10BBD00093F847305AB2FB7B013379680B4493F8F2
:10BBE00094301946FB7B01FA03F35BB213435BB25B
:10BBF000DAB2544B83F84720524B93F849305AB28B
:10BC0000FB7B013379680B4493F89E301946FB7B2C
:10BC100001FA03F35BB213435BB2DAB2494B83F828
:10BC20004920FB7B474A134493F84A10FB7B0133BE
:10BC30007A68134493F8A320FB7B0A43D1B2414AAC
:10BC400013440A4683F84A20FB7B3E4A134493F888
:10BC50004E10FB7B01337A68134493F8A820FB7BDA
:10BC60000A43D1B2374A13440A4683F84E20FB7B7D
:10BC7000344A134493F85210FB7B01337A6813441F
:10BC800093F8AD20FB7B0A43D1B22E4A13440A46F7
:10BC900083F85220FB7B0133FB73FB7B032B7FF686
:10BCA00069AFFB78002B1ED004220021274827F023
:10BCB0006BFA7B6893F8B2301A46224B83F8562011
:10BCC0007B6893F8B3201F4B83F857207B6893F869
:10BCD000B4301A461B4B83F858207B6893F8B52084
:10BCE000184B83F85920FB78002B08D0184A154BC5
:10BCF0001046194680231A4627F038FA1DE0114BEA
:10BD00005A78134B5A700F4B1A79114B1A710D4B0D
:10BD10009A7F0F4B9A770B4B93F838200C4B83F894
:10BD20003820084B93F84620094B83F84620054BF2
:10BD300093F84820064B83F8482000BF1037BD46D3
:10BD400080BD00BFDC390120223A0120323A0120B7
:10BD5000DC38012080B582B000AF00237B60174B38
:10BD600093F88430FB704FF480320021144827F0A0
:10BD70000BFA0020FB78124A19460DF09FFB786001
:10BD80007B68002B15D00F4A0F49104827F0F2FAB4
:10BD90000E48FCF775FA03469AB24FF0FF330B4991
:10BDA0000B4826F08BFA4FF400620021074827F079
:10BDB000EBF900BF0837BD4680BD00BFB03E012093
:10BDC0009C100020EC5D0308F4400308EC440120C3
:10BDD000F04F012080B584B000AF03463A60FB719C
:10BDE0000B46BB710023FB600020F979BA793B68F0
:10BDF0000DF09AFAF860FB68002B11D1BB79202B6B
:10BE000005D1FB79184600F06BFB034600E0FB7997
:10BE1000FB72B979FB7A3A68184600F05DF816E0D3
:10BE2000FB790D4A0D490E4827F0A4FA0C48FCF79F
:10BE300027FA03469AB24FF0FF330949094826F022
:10BE40003DFA4FF400620021054827F09DF900BF3C
:10BE50001037BD4680BD00BF005E030804410308E3
:10BE6000EC440120F04F012080B584B000AF0346C0
:10BE70003A60FB710B46BB710023FB600020F9792F
:10BE8000BA793B680DF080FAF860FB68002B16D099
:10BE9000FB790D4A0D490E4827F06CFA0C48FCF767
:10BEA000EFF903469AB24FF0FF330949094826F0EB
:10BEB00005FA4FF400620021054827F065F900BF3C
:10BEC0001037BD4680BD00BF145E0308044103085F
:10BED000EC440120F04F012080B48DB000AF034648
:10BEE0003A60FB710B46BB71002387F82F30BB799A
:10BEF000022B06D1FB79013B5B016B4A1344BB6209
:10BF000009E0BB79202B06D1FB79013B04335B01AF
:10BF1000654A1344BB623B681B781A46BB6A1A70B9
:10BF2000BB6A1B785AB23B689B785B005BB203F03C
:10BF300002035BB213435BB2DAB2BB6A1A70BB6A2C
:10BF40001B785AB23B685B7A9B005BB203F0040338
:10BF50005BB213435BB2DAB2BB6A1A70BB6A1B787E
:10BF60005AB23B689B7ADB005BB203F008035BB21A
:10BF700013435BB2DAB2BB6A1A70BB6A1B785AB25F
:10BF80003B68DB7A1B015BB203F010035BB2134327
:10BF90005BB2DAB2BB6A1A703B685B781A46BB6A5E
:10BFA0005A70BB6A5B785AB23B6893F820305B00EA
:10BFB0005BB203F002035BB213435BB2DAB2BB6A5B
:10BFC0005A70BB6A5B785AB23B6893F821309B0089
:10BFD0005BB203F004035BB213435BB2DAB2BB6A39
:10BFE0005A70BB6A5B785AB23B6893F82230DB0028
:10BFF0005BB203F008035BB213435BB2DAB2BB6A15
:10C000005A703B681B7A03F00303DAB2BB6A9A707A
:10C010003B681B7B03F00703DAB2BB6ADA703B684C
:10C020005B687B617B691ABABB6A5A603B689B8B11
:10C03000FB61FB695BBABB61BB699AB2BB6A1A81DF
:10C040003B68DB8B7B627B6A5BBA3B623B6A9AB282
:10C05000BB6A5A81002387F82F301AE097F82F30F7
:10C060003A6804335B001344B3F906303B613B6923
:10C070005BBAFB60FA6897F82F3011B2BA6A0433E2
:10C080005B0013440A469A8097F82F30013387F8F3
:10C090002F3097F82F30062BE0D900BF00BF343780
:10C0A000BD465DF8047B70475C3A012080B584B0E2
:10C0B00000AF03460A46FB711346BB710023FB60C9
:10C0C000BB79102B07D10020FB79BA7919460DF006
:10C0D000C9F9F86009E0BB79202B06D10020FB7973
:10C0E000BA7919460DF0A6F9F860FB68002B16D056
:10C0F000FB790D4A0D490E4827F03CF90C48FCF736
:10C10000BFF803469AB24FF0FF330949094826F0B9
:10C11000D5F84FF400620021054827F035F800BF3C
:10C120001037BD4680BD00BF285E030804410308E8
:10C13000EC440120F04F012080B582B000AF0346EF
:10C14000FB710B46BB7113467B710020F9797B793B
:10C15000BA790DF03DF90020F9797B79BA790DF0C3
:10C160004DF900BF0837BD4680BD000080B586B0E0
:10C1700000AF00237B6100237B800022BB1C19469B
:10C1800010460DF087F97861B7F902303B613B69E1
:10C190005BBAFB60FB681AB21E4B1A827B69002BEC
:10C1A0001ED11C4BB3F91030BB60BB685BBA7B601F
:10C1B0007B681A461849194827F0DCF81748FCF73D
:10C1C0005FF803469AB24FF0FF331449144826F043
:10C1D00075F84FF400620021104826F0D5FF15E0F5
:10C1E000104A11490D4827F0C5F80C48FCF748F8EB
:10C1F00003469AB24FF0FF330849094826F05EF82B
:10C200004FF400620021054826F0BEFF00BF18373A
:10C21000BD4680BDB03E012020410308EC44012012
:10C22000F04F0120405E03084041030880B586B00E
:10C2300000AF0346FB71FB79002B02D04548FDF7A8
:10C24000A5FC454B93F8873003F00203002B38D050
:10C250000123FB7532E0404B93F886301A46FB7D94
:10C26000013B42FA03F303F00103002B23D0FA7DD4
:10C270001346DB0013449B0003F51273354A134445
:10C2800004333B61FB79002B0AD0FB7D3A69022124
:10C290001846FFF7E9FDFB7D0221184600F0A6F8DD
:10C2A000FB7D3A6902211846FFF794FDFB7D0221D0
:10C2B000184600F053F8FB7D0133FB75FB7D042B22
:10C2C000C9D9254B93F8873003F02003002B3DD0CC
:10C2D0000123BB7537E0204B93F886301A46BB7DAF
:10C2E000013B42FA03F303F00103002B28D0BB7D8E
:10C2F000184600F0C9F80346FB73FA7B1346DB00CF
:10C3000013449B0003F54073124A13443B61FB79CD
:10C31000002B0AD0FB7B3A6920211846FFF7A4FDC9
:10C32000FB7B2021184600F061F8FB7B3A69202155
:10C330001846FFF74FFDFB7B2021184600F00EF852
:10C34000BB7D0133BB75BB7D082BC4D900BF18373B
:10C35000BD4680BD280C0020B03E012080B584B0D1
:10C3600000AF03460A46FB711346BB710023FB6016
:10C37000BB79022B13D1FB79013B5B01184A1344B3
:10C38000FB600020FB79174A194602F0B0F903461A
:10C39000DBB203F00103DAB2FB689A761CE0BB79EA
:10C3A000202B19D1FB79184600F09AF80346FB724E
:10C3B000FB7A013B04335B01094A1344FB60002014
:10C3C000FB79094A194602F092F90346DBB203F001
:10C3D0000103DAB2FB689A7600BF1037BD4680BD14
:10C3E0005C3A01206AB11E0020891E0080B586B02B
:10C3F00002AF03460A46FB711346BB710023FB6084
:10C40000BB79022B11D1FB79013B5B01164A134426
:10C41000FB600020F979FB689B7E1A46012300939C
:10C420001346124A02F07CF91AE0BB79202B17D18F
:10C43000FB79184600F054F80346FB72FB7A013B87
:10C4400004335B01084A1344FB600020F979FB6860
:10C450009B7E1A46012300931346054A02F060F9B9
:10C4600000BF1037BD4680BD5C3A01206AB11E0096
:10C4700020891E0080B500AF002318460BF08AFB10
:10C480000346184680BD000080B483B000AF034669
:10C49000FB71FB79013B052B1AD801A252F823F05E
:10C4A000B9C40008BDC40008C1C40008C5C4000860
:10C4B000C9C40008CDC4000803230AE0042308E02F
:10C4C000052306E0062304E0012302E0022300E046
:10C4D000FB7918460C37BD465DF8047B704700BFFA
:10C4E00080B483B000AF0346FB71FB79013B052BA1
:10C4F0001AD801A252F823F011C5000815C500088A
:10C5000019C500081DC5000821C5000825C500087B
:10C5100005230AE0062308E0012306E0022304E0E5
:10C52000032302E0042300E0FB7918460C37BD46E4
:10C530005DF8047B704700BF80B500AF284B93F8CF
:10C54000923003F00103002B14D0264A4FF42071DF
:10C55000254819F079FE234A4FF4207122481AF039
:10C56000ADF81F4B93F8923023F00103DAB21C4B65
:10C5700083F892201A4B93F8923003F00203002BB9
:10C5800012D01A4A80211A4819F05EFE174A8021FB
:10C5900017481AF093F8124B93F8923023F00203E5
:10C5A000DAB20F4B83F892200D4B93F8923003F0E0
:10C5B0000403002B12D00F4A80210F4819F044FECB
:10C5C0000C4A80210C481AF079F8054B93F8923008
:10C5D00023F00403DAB2024B83F8922000BF80BD3F
:10C5E000B03E01205C3A012000A007085C39012020
:10C5F00080A20708DC35012000A3070880B483B0BF
:10C6000000AF0346FB71114B1B68114A934216D1D0
:10C61000FB792F2B06D80F4B1B7843F00103DAB2BE
:10C620000C4B1A70FB792F2B09D9FB79312B06D8CB
:10C63000084B1B7843F01003DAB2064B1A7000BFA8
:10C640000C37BD465DF8047B704700BF1C0B002013
:10C650005C3501209C10012080B586B000AF0346F8
:10C66000FB714D4B93F83030FB754B4B93F83130E9
:10C67000BB75FB7D03F00203002B1DD0BB7D002B9F
:10C680001AD0BB7D042B17D8BB7D013B1A2202FBBD
:10C6900003F3424A13443B61FB79002B03D0386912
:10C6A00000F084F808E0BB7D1A460221386900F0EA
:10C6B00099FA386900F098F9FB7D03F02003002B0C
:10C6C0001DD0BB7D002B1AD0BB7D082B17D8BB7D9E
:10C6D000013B1A2202FB03F3314A13443B61FB790D
:10C6E000002B03D0386900F061F808E0BB7D1A46E2
:10C6F0002021386900F076FA386900F075F9FB7D81
:10C7000003F00103002B1ED0BB7D002B1BD0BB7D93
:10C71000042B18D8BB7D5A1E13465B001344DB0064
:10C72000204A1344FB60FB79002B03D0F86800F02B
:10C73000CDF808E0BB7D1A460121F86800F05AFCEC
:10C74000F86800F0D5F9FB7D03F01003002B1ED034
:10C75000BB7D002B1BD0BB7D082B18D8BB7D5A1E80
:10C7600013465B001344DB000F4A1344FB60FB7964
:10C77000002B03D0F86800F0A9F808E0BB7D1A464A
:10C780001021F86800F036FCF86800F0B1F900BF3D
:10C790001837BD4680BD00BF5C3501200000002079
:10C7A00068000020380100209801002080B493B078
:10C7B00000AF7860444B1B78002B14BF012300238B
:10C7C000DAB27B681A70404B5B78002B14BF0123F0
:10C7D0000023DAB27B685A703B4B9A787B689A7078
:10C7E000394BDA787B68DA70374B1A797B681A71C3
:10C7F000354B5A797B685A71334B9B79002B14BFA8
:10C8000001230023DAB27B689A712F4B1B89FB60EE
:10C81000FB685BBABB60BB689AB27B681A812A4B23
:10C820005B897B617B695BBA3B613B699AB27B68E0
:10C830005A81254B9B89FB61FB695BBABB61BB6974
:10C840009AB27B689A81204BDB897B627B6A5BBAF8
:10C850003B623B6A9AB27B68DA811B4B1B8AFB62A4
:10C86000FB6A5BBABB62BB6A9AB27B681A82164BE0
:10C870005B8A7B637B6B5BBA3B633B6B9AB27B6887
:10C880005A82114B9B8AFB63FB6B5BBABB63BB6B2E
:10C890009AB27B689A820C4BDB8A7B647B6C5BBAB6
:10C8A0003B643B6C9AB27B68DA82074B1A7E7B68EA
:10C8B0001A76054B5A7E7B685A7600BF4C37BD46C8
:10C8C0005DF8047B704700BF5C35012080B48BB0FD
:10C8D00000AF7860434B9B7E002B14BF01230023E5
:10C8E000DAB27B681A703F4BDA7E7B685A703D4B38
:10C8F0001B7F002B14BF01230023DAB27B689A70E0
:10C90000384B5A7F7B68DA70364B9A7F7B681A7196
:10C91000344BDB7F002B14BF01230023DAB27B688A
:10C920005A71304B93F820207B689A712D4B93F805
:10C930002130002B14BF01230023DAB27B68DA71A7
:10C94000284B93F822207B681A72264B93F82320F9
:10C950007B685A72234B93F82430002B14BF0123B9
:10C960000023DAB27B689A721E4B93F825207B680D
:10C97000DA721C4B93F826207B681A73194B93F8D4
:10C9800027207B689A75174B1B8DFB60FB685BBA91
:10C99000BB60BB689AB27B68DA81124B5B8D7B61AE
:10C9A0007B695BBA3B613B699AB27B681A820D4B2B
:10C9B0009B8DFB61FB695BBABB61BB699AB27B680B
:10C9C0005A82084BDB8D7B627B6A5BBA3B623B6AB7
:10C9D0009AB27B689A8200BF2C37BD465DF8047B13
:10C9E000704700BF5C35012080B493B000AF786021
:10C9F0007B681B781A463D4B1A707B685B781A4639
:10CA00003A4B5A707B689A78384B9A707B68DA7820
:10CA1000364BDA707B681A79344B1A717B685A7915
:10CA2000324B5A717B689B791A46304B9A717B68FE
:10CA30001B89FB60FB685BBABB60BB689AB22B4B7F
:10CA40001A817B685B897B617B695BBA3B613B696F
:10CA50009AB2264B5A817B689B89FB61FB695BBA62
:10CA6000BB61BB699AB2214B9A817B68DB897B628F
:10CA70007B6A5BBA3B623B6A9AB21C4BDA817B6889
:10CA80001B8AFB62FB6A5BBABB62BB6A9AB2174B3A
:10CA90001A827B685B8A7B637B6B5BBA3B633B6B15
:10CAA0009AB2124B5A827B689B8AFB63FB6B5BBA20
:10CAB000BB63BB6B9AB20D4B9A827B68DB8A7B644B
:10CAC0007B6C5BBA3B643B6C9AB2084BDA827B6846
:10CAD0001A7E064B1A767B685A7E044B5A7600BF44
:10CAE0004C37BD465DF8047B704700BF5C350120C4
:10CAF00080B48BB000AF78607B681B781A46384BE7
:10CB00009A767B685A78364BDA767B689B781A4639
:10CB1000334B1A777B68DA78314B5A777B681A790E
:10CB20002F4B9A777B685B791A462D4BDA777B68B7
:10CB30009A792B4B83F820207B68DB791A46284BA7
:10CB400083F821207B681A7A254B83F822207B68A2
:10CB50005A7A234B83F823207B689B7A1A46204B12
:10CB600083F824207B68DA7A1D4B83F825207B68C4
:10CB70001A7B1B4B83F826207B689A7D184B83F821
:10CB800027207B68DB89FB60FB685BBABB60BB6806
:10CB90009AB2134B1A857B681B8A7B617B695BBAEF
:10CBA0003B613B699AB20E4B5A857B685B8AFB619D
:10CBB000FB695BBABB61BB699AB2094B9A857B681A
:10CBC0009B8A7B627B6A5BBA3B623B6A9AB2044B8C
:10CBD000DA8500BF2C37BD465DF8047B704700BF87
:10CBE0005C35012080B584B000AF78600B46FB70E7
:10CBF0001346BB70FB78022B40F0F880704B1B682B
:10CC0000B978704A184601F072FD0346DB0B03F059
:10CC10000103002B14BF01230023DAB27B681A70D2
:10CC2000674B1B68B978674A184601F060FD0346F8
:10CC30009B0B03F00103002B14BF01230023DAB286
:10CC40007B685A705E4B1B68B9785E4A184601F0E3
:10CC50004EFD0346DB0ADBB203F00103DAB27B6868
:10CC60009A70574B1B68B978564A184601F03FFD39
:10CC700003461B09DBB203F00F03DAB27B68DA70FC
:10CC80004F4B1B68B9784F4A184601F030FD0346F8
:10CC9000DBB203F00F03DAB27B681A71484B1B68F2
:10CCA000B978484A184601F022FD03461B0ADBB258
:10CCB00003F00703DAB27B685A71414B1B68B978FD
:10CCC000404A184601F013FD03461B0B03F0010315
:10CCD000002B14BF01230023DAB27B689A71384B12
:10CCE0001B68B978384A184601F001FD03469AB22C
:10CCF0007B681A81324B1B68B978344A184601F0B8
:10CD0000F6FC03469AB27B685A812D4B1B68B978B2
:10CD10002F4A184601F0EBFC03469AB27B689A81D1
:10CD2000274B1B68B9782B4A184601F0E0FC0346F4
:10CD30009AB27B68DA81224B1B68B978264A18467A
:10CD400001F0D5FC03469AB27B681A821C4B1B6823
:10CD5000B978224A184601F0CAFC03469AB27B68A9
:10CD60005A82174B1B68B9781D4A184601F0BFFC60
:10CD700003469AB27B689A82114B1B68B978194AAC
:10CD8000184601F0B4FC03469AB27B68DA820C4B79
:10CD90001B68B978144A184601F0A9FC0346DAB2B8
:10CDA0007B681A76064B1B68B9780F4A184601F063
:10CDB0009EFC03461B0ADAB27B685A7600E100BF8C
:10CDC000B05D03085CB11E005DB11E005EB11E00C7
:10CDD0005FB11E0060B11E0061B11E0062B11E0095
:10CDE00063B11E0064B11E0065B11E00FB78202BEC
:10CDF00040F0E680BB781846FFF746FB0346FB731E
:10CE0000714B1B68F97B714A184601F070FC0346B0
:10CE1000DB0B03F00103002B14BF01230023DAB264
:10CE20007B681A70684B1B68F97B684A184601F0EA
:10CE30005EFC03469B0B03F00103002B14BF012390
:10CE40000023DAB27B685A705F4B1B68F97B5F4A3C
:10CE5000184601F04CFC0346DB0ADBB203F0010389
:10CE6000DAB27B689A70584B1B68F97B574A1846B0
:10CE700001F03DFC03461B09DBB203F00F03DAB2FD
:10CE80007B68DA70504B1B68F97B504A184601F0FA
:10CE90002EFC0346DBB203F00F03DAB27B681A7193
:10CEA000494B1B68F97B494A184601F020FC0346B0
:10CEB0001B0ADBB203F00703DAB27B685A71424BFC
:10CEC0001B68F97B414A184601F011FC03461B0B15
:10CED00003F00103002B14BF01230023DAB27B68A7
:10CEE0009A71394B1B68F97B394A184601F0FFFBF0
:10CEF00003469AB27B681A81334B1B68F97B354A2B
:10CF0000184601F0F4FB03469AB27B685A812E4B17
:10CF10001B68F97B304A184601F0E9FB03469AB2D8
:10CF20007B689A81284B1B68F97B2C4A184601F0D4
:10CF3000DEFB03469AB27B68DA81234B1B68F97BE0
:10CF4000274A184601F0D3FB03469AB27B681A823F
:10CF50001D4B1B68F97B234A184601F0C8FB0346AA
:10CF60009AB27B685A82184B1B68F97B1E4A184696
:10CF700001F0BDFB03469AB27B689A82124B1B6894
:10CF8000F97B1A4A184601F0B2FB03469AB27B6855
:10CF9000DA820D4B1B68F97B154A184601F0A7FB96
:10CFA0000346DAB27B681A76074B1B68F97B104A96
:10CFB000184601F09CFB03461B0ADAB27B685A76DE
:10CFC00000BF1037BD4680BDB05D030813891E0049
:10CFD00014891E0015891E0016891E0017891E005F
:10CFE00018891E0019891E001A891E001B891E003F
:10CFF0001C891E0080B584B000AF78600B46FB70C2
:10D000001346BB70FB78012B40F0CA805D4B1B6858
:10D01000B9785D4A184601F06AFB034603F0010344
:10D02000002B14BF01230023DAB27B681A70554B22
:10D030001B68B978554A184601F059FB03461B0B8B
:10D04000DBB203F00103DAB27B685A704D4B1B6808
:10D05000B9784E4A184601F04AFB03461B0A03F012
:10D060000103002B14BF01230023DAB27B689A70FE
:10D07000444B1B68B978454A184601F038FB034613
:10D080001B09DBB203F00F03DAB27B68DA703D4BA9
:10D090001B68B9783D4A184601F029FB0346DBB20C
:10D0A00003F00F03DAB27B681A71364B1B68B9784C
:10D0B000364A184601F01BFB03465B0A03F00103E6
:10D0C000002B14BF01230023DAB27B689A722D4B28
:10D0D0001B68B9782D4A184601F009FB03469B0AE4
:10D0E000DBB203F00303DAB27B68DA72254B1B680C
:10D0F000B978254A184601F0FAFA03465B08DBB214
:10D1000003F00103DAB27B681A731E4B1B68B9780F
:10D110001D4A184601F0EBFA03461B0ADBB203F086
:10D120001F03DAB27B689A75164B1B68B978184AE8
:10D13000184601F0DCFA03469AB27B68DA81114B9B
:10D140001B68B978134A184601F0D1FA03469AB21F
:10D150007B681A820B4B1B68B9780F4A184601F09E
:10D16000C6FA03469AB27B685A82064B1B68B978A6
:10D170000A4A184601F0BBFA03469AB27B689A82C3
:10D18000D2E000BFB05D0308E5601E00E6601E004F
:10D1900015111E0016111E0017111E0018111E0079
:10D1A000FB78102B40F0C080BB781846FFF76CF975
:10D1B0000346FB735E4B1B68F97B5E4A184601F021
:10D1C00096FA034603F00103002B14BF012300234A
:10D1D000DAB27B681A70564B1B68F97B564A1846C0
:10D1E00001F085FA03461B0BDBB203F00103DAB250
:10D1F0007B685A704E4B1B68F97B4F4A184601F00A
:10D2000076FA03461B0A03F00103002B14BF012327
:10D210000023DAB27B689A70454B1B68F97B464A5B
:10D22000184601F064FA03461B09DBB203F00F0352
:10D23000DAB27B68DA703E4B1B68F97B3E4A1846CF
:10D2400001F055FA0346DBB203F00F03DAB27B6854
:10D250001A71374B1B68F97B374A184601F047FAB9
:10D2600003465B0A03F00103002B14BF01230023D4
:10D27000DAB27B689A722E4B1B68F97B2E4A1846ED
:10D2800001F035FA03469B0ADBB203F00303DAB27E
:10D290007B68DA72264B1B68F97B264A184601F038
:10D2A00026FA03465B08DBB203F00103DAB27B68BF
:10D2B0001A731F4B1B68F97B1E4A184601F017FAB8
:10D2C00003461B0ADBB203F01F03DAB27B689A75D0
:10D2D000174B1B68F97B194A184601F008FA0346F8
:10D2E0009AB27B68DA81124B1B68F97B144A1846A4
:10D2F00001F0FDF903469AB27B681A820C4B1B6859
:10D30000F97B104A184601F0F2F903469AB27B689D
:10D310005A82074B1B68F97B0B4A184601F0E7F964
:10D3200003469AB27B689A8200BF1037BD4680BD23
:10D33000B05D030813111E0014111E0015111E000C
:10D3400016111E0017111E0018111E0080B582B0A4
:10D3500000AF164B93F88B3003F00203002B0CD078
:10D360000023FB7106E0FB79184600F021F8FB79F9
:10D370000133FB71FB79042BF5D90C4B93F88B30FF
:10D3800003F02003002B0CD00023FB7106E0FB7997
:10D39000184600F06FF8FB790133FB71FB79082B1D
:10D3A000F5D900BF0837BD4680BD00BFB03E0120A3
:10D3B00080B586B000AF0346FB7100237B61264B2E
:10D3C0003B61FB790133FB73244B1868F97BFB79D4
:10D3D0001A2202FB03F33A691344022209F0F6FC15
:10D3E0007861FB791C4A1A2101FB03F313441B7873
:10D3F00083F00103DAB2FB791146194A5B01134449
:10D400001A330A461A70FB7B02211846FEF7EEFF1C
:10D41000FB7B02211846FEF7A1FF7B69002B17D08A
:10D42000FB7901330F4A1049104825F0A3FF0F483C
:10D43000FAF726FF03469AB24FF0FF330B490C4828
:10D4400024F03CFF4FF400620021084825F09CFEC8
:10D4500000BF1837BD4680BD00000020B05D030846
:10D460005C3A0120585E03084C410308EC4401205B
:10D47000F04F012080B586B000AF0346FB7100235A
:10D480007B61294B3B61FB790133DBB21846FEF728
:10D49000FBFF0346FB73254B1868F97BFB791A22C7
:10D4A00002FB03F33A691344202209F08FFC7861F0
:10D4B000FB791D4A1A2101FB03F313441B7883F007
:10D4C0000103DAB2FB791146194A5B0113449A331E
:10D4D0000A461A70FB7B20211846FEF787FFFB7B6C
:10D4E00020211846FEF73AFF7B69002B17D0FB7905
:10D4F0000133104A1049114825F03CFF0F48FAF754
:10D50000BFFE03469AB24FF0FF330C490C4824F09B
:10D51000D5FE4FF400620021084825F035FE00BF1B
:10D520001837BD4680BD00BF68000020B05D03080D
:10D530005C3A01206C5E03086C410308EC44012056
:10D54000F04F012080B582B000AF164B93F88E30BB
:10D5500003F00103002B0CD00023FB7106E0FB79E4
:10D56000184600F021F8FB790133FB71FB79042B9D
:10D57000F5D90C4B93F88E3003F01003002B0CD030
:10D580000023FB7106E0FB79184600F05FF8FB7999
:10D590000133FB71FB79082BF5D900BF0837BD4675
:10D5A00080BD00BFB03E012080B58EB000AF034605
:10D5B000FB7100237B631F4B3B63FB79013387F8CF
:10D5C0002F301D4B186897F82F10FA7913465B001F
:10D5D0001344DB001A463B6B1344012209F05CFC48
:10D5E0007863154B186897F82F1007F1080301228C
:10D5F00009F075FC7B6B002B17D0FB7901330F4AC8
:10D600000F49104825F0B6FE0E48FAF739FE0346DA
:10D610009AB24FF0FF330B490B4824F04FFE4FF402
:10D6200000620021074825F0AFFD00BF3837BD4636
:10D6300080BD00BF38010020B05D0308805E030894
:10D640008C410308EC440120F04F012080B58EB0DE
:10D6500000AF0346FB7100237B63214B3B63FB79E7
:10D660000133DBB21846FEF70FFF034687F82F3071
:10D670001C4B186897F82F10FA7913465B00134477
:10D68000DB001A463B6B1344102209F005FC78635B
:10D69000144B186897F82F1007F10803102209F0AF
:10D6A0001EFC7B6B002B17D0FB7901330E4A0F4910
:10D6B0000F4825F05FFE0E48FAF7E2FD03469AB2E6
:10D6C0004FF0FF330A490B4824F0F8FD4FF4006295
:10D6D0000021074825F058FD00BF3837BD4680BD02
:10D6E00098010020B05D0308945E0308AC41030874
:10D6F000EC440120F04F012080B582B000AF234BF5
:10D7000093F88E3003F00103002B19D00123FB7135
:10D7100013E01E4B93F88D301A46FB79013B42FA19
:10D7200003F303F00103002B04D0FB790121184619
:10D7300000F02EF8FB790133FB71FB79042BE8D95B
:10D74000124B93F88E3003F01003002B19D00123F5
:10D75000BB7113E00D4B93F88D301A46BB79013B3A
:10D7600042FA03F303F00103002B04D0BB7910212C
:10D77000184600F00DF8BB790133BB71BB79082B5B
:10D78000E8D900BF0837BD4680BD00BFB03E0120CC
:10D79000B0B590B000AF03460A46FB711346BB71AB
:10D7A0000023FB634C4B1868F97907F10803BA7939
:10D7B00009F095FB0246FB6B1343FB63FB6B002BED
:10D7C0001CD01C220021454825F0DEFCFB79444A90
:10D7D0004449454825F0CEFD4348FAF751FD03463C
:10D7E0009AB24FF0FF334049404824F067FD4FF4B0
:10D7F000006200213C4825F0C7FC5CE03A7A3C4BD3
:10D8000083F860207B7A002B05D03B69B3F1FF3FA2
:10D8100001D0012300E00023DAB2354B83F8612008
:10D82000BB7A002B05D07B69B3F1FF3F01D0012308
:10D8300000E00023DAB22E4B83F86220FA7A2C4BF8
:10D8400083F863203A7B2A4B83F864207A7B284B49
:10D8500083F86520BB7B1A46254B83F8662097F832
:10D860002020234B83F8672097F82120204B83F852
:10D8700068203B69FB62FB6A1BBA1D4AD3667B6961
:10D880003B633B6B1BBA1A4A1367D7E906014FF09B
:10D8900000024FF000030A00002313467B637B6BFA
:10D8A0001BBA134A5367D7E906231346BB63BB6B06
:10D8B0001BBA0F4A93670F4A0D4B02F1600403F144
:10D8C00060050FCD0FC495E8070084E8070000BF8E
:10D8D0004037BD46B0BD00BFB05D03083C3A0120F3
:10D8E000A85E0308CC410308EC440120F04F01205E
:10D8F000DC390120DC38012080B586B000AF03465A
:10D900003960FB710023FB750023FB720023BB729F
:10D9100000237B72FB79012B03D1964B3B610823DB
:10D92000BB75FB79022B03D1934B3B610423BB7581
:10D93000FB79012B02D0FB79022B7DD10023FB75F3
:10D9400076E0FB7D03F00103DBB2002B01D0F02376
:10D9500000E00F23FB72FB7D9B00DBB203F00403AE
:10D96000BB723B681B781A46FB7D42FA03F303F057
:10D970000102FB7D1A2101FB03F339690B44002AE4
:10D9800014BF01220022D2B21A70FB7D1A2202FBC0
:10D9900003F33A69134400225A70FB7D1A2202FBFA
:10D9A00003F33A69134401229A70FB7D5B08DBB2F2
:10D9B00004333A6813441A78FB7A1340DBB21A46F0
:10D9C000BB7A42FA03F3DBB2184600F0DBF80346F9
:10D9D0007B72FF227B7A934201D0797A00E00A21A0
:10D9E000FB7D1A2202FB03F33A6913440A461A71BB
:10D9F000FB7D1A2202FB03F33A691A44FB7D1A21CC
:10DA000001FB03F339690B441279DA70FF227B7A48
:10DA1000934201D1052100E00021FB7D1A2202FB87
:10DA200003F33A6913440A465A71FB7D0133FB75CF
:10DA3000FA7DBB7D9A4284D3FB79042B03D14F4BF3
:10DA4000FB600823BB75FB79082B03D14C4BFB60B3
:10DA50000423BB75FB79042B03D0FB79082B40F022
:10DA60008580FA7D13465B001344DB001A46FB6891
:10DA700013440022DA71FA7D13465B001344DB0085
:10DA80001A46FB68134400229A720023FB7569E072
:10DA9000FB7D03F00103DBB2002B01D0F02300E09B
:10DAA0000F23FB72FB7D9B00DBB203F00403BB7210
:10DAB0003B681B781A46FB7D42FA03F303F0010131
:10DAC000FA7D13465B001344DB001A46FB681344DF
:10DAD000002914BF01220022D2B21A70FA7D134627
